{
  "contractName": "AssetCreation",
  "abi": [
    {
      "constant": true,
      "inputs": [
        {
          "name": "",
          "type": "uint256"
        }
      ],
      "name": "assetToOwner",
      "outputs": [
        {
          "name": "",
          "type": "address"
        }
      ],
      "payable": false,
      "stateMutability": "view",
      "type": "function"
    },
    {
      "constant": true,
      "inputs": [
        {
          "name": "",
          "type": "uint256"
        }
      ],
      "name": "assets",
      "outputs": [
        {
          "name": "name",
          "type": "string"
        },
        {
          "name": "assetAddress",
          "type": "bytes1"
        }
      ],
      "payable": false,
      "stateMutability": "view",
      "type": "function"
    },
    {
      "anonymous": false,
      "inputs": [
        {
          "indexed": false,
          "name": "assetId",
          "type": "uint256"
        },
        {
          "indexed": false,
          "name": "name",
          "type": "string"
        },
        {
          "indexed": false,
          "name": "assetAddress",
          "type": "bytes1"
        }
      ],
      "name": "NewAsset",
      "type": "event"
    },
    {
      "constant": false,
      "inputs": [
        {
          "name": "_name",
          "type": "string"
        },
        {
          "name": "_address",
          "type": "bytes1"
        }
      ],
      "name": "addNewAsset",
      "outputs": [],
      "payable": false,
      "stateMutability": "nonpayable",
      "type": "function"
    }
  ],
  "bytecode": "0x608060405234801561001057600080fd5b5061066a806100206000396000f300608060405260043610610057576000357c0100000000000000000000000000000000000000000000000000000000900463ffffffff16806385fd678c1461005c578063cf35bdd0146100c9578063d6a05baa146101ba575b600080fd5b34801561006857600080fd5b506100876004803603810190808035906020019092919050505061024f565b604051808273ffffffffffffffffffffffffffffffffffffffff1673ffffffffffffffffffffffffffffffffffffffff16815260200191505060405180910390f35b3480156100d557600080fd5b506100f460048036038101908080359060200190929190505050610282565b6040518080602001837effffffffffffffffffffffffffffffffffffffffffffffffffffffffffffff19167effffffffffffffffffffffffffffffffffffffffffffffffffffffffffffff19168152602001828103825284818151815260200191508051906020019080838360005b8381101561017e578082015181840152602081019050610163565b50505050905090810190601f1680156101ab5780820380516001836020036101000a031916815260200191505b50935050505060405180910390f35b3480156101c657600080fd5b5061024d600480360381019080803590602001908201803590602001908080601f016020809104026020016040519081016040528093929190818152602001838380828437820191505050505050919291929080357effffffffffffffffffffffffffffffffffffffffffffffffffffffffffffff19169060200190929190505050610379565b005b60016020528060005260406000206000915054906101000a900473ffffffffffffffffffffffffffffffffffffffff1681565b60008181548110151561029157fe5b9060005260206000209060020201600091509050806000018054600181600116156101000203166002900480601f01602080910402602001604051908101604052809291908181526020018280546001816001161561010002031660029004801561033d5780601f106103125761010080835404028352916020019161033d565b820191906000526020600020905b81548152906001019060200180831161032057829003601f168201915b5050505050908060010160009054906101000a90047f010000000000000000000000000000000000000000000000000000000000000002905082565b6103838282610387565b5050565b6000600160006040805190810160405280868152602001857effffffffffffffffffffffffffffffffffffffffffffffffffffffffffffff191681525090806001815401808255809150509060018203906000526020600020906002020160009091929091909150600082015181600001908051906020019061040b929190610599565b5060208201518160010160006101000a81548160ff02191690837f0100000000000000000000000000000000000000000000000000000000000000900402179055505050039050336001600083815260200190815260200160002060006101000a81548173ffffffffffffffffffffffffffffffffffffffff021916908373ffffffffffffffffffffffffffffffffffffffff1602179055507febd7531b76675e02549bbfb6767a683f17b874ac8a45d97772a8510dd7d7937b8184846040518084815260200180602001837effffffffffffffffffffffffffffffffffffffffffffffffffffffffffffff19167effffffffffffffffffffffffffffffffffffffffffffffffffffffffffffff19168152602001828103825284818151815260200191508051906020019080838360005b8381101561055857808201518184015260208101905061053d565b50505050905090810190601f1680156105855780820380516001836020036101000a031916815260200191505b5094505050505060405180910390a1505050565b828054600181600116156101000203166002900490600052602060002090601f016020900481019282601f106105da57805160ff1916838001178555610608565b82800160010185558215610608579182015b828111156106075782518255916020019190600101906105ec565b5b5090506106159190610619565b5090565b61063b91905b8082111561063757600081600090555060010161061f565b5090565b905600a165627a7a72305820d815fa69dc232b6bbff1203f636b5f10dba9beee20a2358f288e1b58f9c85a7f0029",
  "source": "pragma solidity ^0.4.23;\n\ncontract AssetCreation {\n    \n    event NewAsset(uint assetId, string name, byte assetAddress);\n    \n    struct Asset {\n        string name;\n        byte assetAddress;\n    }\n    \n    Asset[] public assets;\n    \n    mapping (uint => address) public assetToOwner;\n    mapping (address => uint) ownerAssetCount;\n    \n    function _createAsset(string _name, byte _address) internal {\n        uint id = assets.push(Asset(_name, _address)) - 1;\n        assetToOwner[id] = msg.sender;\n        emit NewAsset(id, _name, _address);\n    }\n    \n    function addNewAsset(string _name, byte _address) public {\n        // check enough gas\n        // check address if needed??\n        _createAsset(_name, _address);\n    }\n}",
  "sourcePath": "/Users/dafunk/learn/eth/contracts/AssetCreation.sol",
  "compiler": {
    "name": "solc",
    "version": "0.4.24+commit.e67f0147.Emscripten.clang"
  },
  "schemaVersion": "2.0.1",
  "updatedAt": "2018-06-25T16:03:22.277Z"
}